:10E0000048656C6C6F20576F726C64210A000000C9
:02E0100000000E
:10E01200314000223C4000020D433E400200B0125B
:10E02200A0E00C43B0124AE0B0129EE00A120A4C81
:10E032006C4CCA93000006241A53B01282E07C4A48
:10E042000C93FB233A4130410A12B240805A20011C
:10E05200F2432200B01276E03A4001E07C404800F0
:10E06200B01282E07C4A0C93FB23F240F0FF2100C5
:10E072003A41304192438200F24011008000304127
:10E08200F2B28100FD23C24C84004C433041D242A3
:10E0920085000002F240100081000013FF3F0E5C79
:10E0A2000F4C0F9E012030411F53CF4DFFFFF93F10
:02FFFA0090E095
:02FFFE0012E00F
:040000030000E01207
:00000001FF
